:400000000080002011000000150400001504000080B500AF024A034B1B68136000F0FEF9BC760040FA46004010B5054C237833B9044B13B10448AFF300800123237010BDEE
:400040002081FF1F00000000F4130000084B10B51BB108480849AFF300800848036803B910BD074B002BFBD0BDE81040184700BF00000000F41300002481FF1F0881FF1F03
:400080000000000080B584B000AF62B600F02EF81123BB8105233B7017237B700E23BB700A23FB7000233B713B460FCB00F03CF800F02AF84FF47A7001F0C8F8F8E700BFC2
:4000C00090B585B000AF074C3B46184600F0FCF83B460FCB84E80F00034B01221A701437BD4690BD4081FF1F3C81FF1F80B500AF00F016FC034801F04FF800F03BFF00F018
:40010000E5FF80BDC100000080B400AF054B1B78DBB2012B02D1034B00221A70BD465DF8047B70473C81FF1F90B587B000AF3C4684E80F006820002100F0DEFD0E2000F06E
:4001400065FE402000F062FE00F034FE6820002100F0D2FD002000F059FE3A79594BA3FB0213D9080B469B000B445B00D31AFB753B79544AA2FB0323DB08DBB21B01DAB270
:40018000FB7D1343DBB2FB75FB7D184600F03EFEFA784C4BA3FB0213D9080B469B000B445B00D31AFB75FB78464AA2FB0323DB08DBB21B01DAB2FB7D1343DBB2FB75FB7DC1
:4001C000184600F023FEBA783E4BA3FB0213D9080B469B000B445B00D31AFB75BB78394AA2FB0323DB08DBB21B01DAB2FB7D1343DBB2FB75FB7D184600F008FEFB7D184650
:4002000000F004FE00F0D6FD6820002100F074FD042000F0FBFD7A782A4BA3FB0213D9080B469B000B445B00D31AFB757B78254AA2FB0323DB08DBB21B01DAB2FB7D1343FA
:40024000DBB2FB75FB7D184600F0E0FD3A781D4BA3FB0213D9080B469B000B445B00D31AFB753B78174AA2FB0323DB08DBB21B01DAB2FB7D1343DBB2FB75FB7D184600F0BD
:40028000C5FDBA890F4BA3FB0213D9080B469B000B445B00D31A9BB2FB75BB89094AA2FB0323DB089BB21B01DAB2FB7D1343DBB2FB75FB7D184600F0A9FD00F07BFD1C37E7
:4002C000BD4690BDCDCCCCCC90B589B000AF78606820002100F010FD002000F097FD00F069FD6820012100F007FD012000F0CEFD0346FB77FB7F03F00F03DBB23B743A7C32
:40030000FB7F1B09DBB2194689000B445B00DBB21344DBB23B74012000F0B8FD0346FB77FB7F03F00F03DBB2FB73FA7BFB7F1B09DBB2194689000B445B00DBB21344DBB242
:40034000FB73012000F0A2FD0346FB77FB7F03F00F03DBB2BB73BA7BFB7F03F03F031B11DBB2194689000B445B00DBB21344DBB2BB73012000F08AFD0346FB77012000F038
:4003800085FD0346FB77FB7F03F00F03DBB27B737A7BFB7F1B09DBB2194689000B445B00DBB21344DBB27B73012000F06FFD0346FB77FB7F03F00F03DBB23B733B7B3B739F
:4003C000002000F063FD0346FB77FB7F9BB203F00F039BB23B833A8BFB7F1B09DBB29BB2194689000B445B009BB213449BB23B8300F0E0FC00F014FE03467B617B681C4645
:4004000007F10C030FCB84E80F0078682437BD4690BD00BF80B400AFFEE700BF80B586B000AF224B7B61224B3B61204B7B6135E03B691B68FB603B695B68BB603B699B681C
:400440003B6000237B600CE0FB681A68BB681A60BB680433BB60FB680433FB607B6804337B607A683B689A42EED13B69DB683B6000237B6008E0BB6800221A60BB68043375
:40048000BB607B6804337B607A683B689A42F2D13B6910333B617B69013B7B617B69002BC6D100F06DFFFFF7EDFDFEE7010000005814000080B582B000AF174B174A1A6002
:4004C000174A174B1B6843F40073136000237B600FE07B68032B04D8124A7B6852F8233000E0114B11497A6841F822307B6801337B607B682F2BECD90D4B1B78DAB20D4B1D
:400500001A700D4B094A1A6000F018F90B4B00221A600837BD4680BD0CED00E00004FA0514ED00E000000000150400000080FF1FBC7600400481FF1F08ED00E00081FF1F9D
:4005400080B582B000AF78603960786800213A6800F047FF0837BD4680BD00BF80B584B000AFF860B9607A60F868B9687A6800F02DFF1037BD4680BD80B483B000AF034615
:40058000FB71FEE780B487B000AF7860396000233B6100237B6127E07B699B007A6813441B68BB60BB68FB73BB6823F0FF03BB6014E03B695B003A6813441B781A46BB685E
:4005C000134419463B695B003A6813445B780B703B6901333B61FB7B013BFB73FB7B002BE7D17B6901337B617B69172BD4D91C37BD465DF8047B704780B582B000AF304BD9
:4006000045F6BF521A802F4B18221A702E4B02221A704FF0402308221A702C4B03221A702B4B2C4A1278D2B21A702B4B08221A802A4B41F251221A800023FB7019237B60DB
:4006400014E0FB785B00DAB2254B1B78DBB203F00103DBB21343DBB203F00303FB704FF4F07000F07DFE7B68013B7B607B68002B02D0FB78032BE4D17B68002B02D103208F
:40068000FFF77AFF174B4FF480721A80154B07221A70154B00221A70144B48221A70114B00221A70124B02221A70124A114B1B78DBB243F00103DBB213700837BD4680BD77
:4006C00080400040824000400043004000420040A14600400801004922420040204200402542004004400040064000400840004001400040A243004080B483B000AF0B4BE9
:400700001B78FB710A4AFB7903F00703DBB21370084AFB791B09DBB21370074B44221A700C37BD465DF8047B704700BFCF0100496E5800406F5800407658004080B582B07E
:4007400000AF72B6364A364B1B78DBB243F00403DBB213700023FB7113E0FA7913465B0013445B002F4A13443B603B681A683B689B889BB210461946FFF7E2FEFB79013306
:40078000FB71FB79092BE8D94FF090402649FFF7F9FE264A254B1B78DBB243F00203DBB21370234A224B1B78DBB243F00203DBB21370204A1F4B1B78DBB243F04003DBB278
:4007C00013701D4A1C4B1B78DBB243F01003DBB213701A481A490822FFF7C0FE19481A490A22FFF7BBFE194A184B1B78DBB243F00803DBB21370164B01221A70FFF7FCFEBE
:40080000134B81221A70134B01221A70FFF774FF114808490E22FFF7A1FE0837BD4680BDE8460040F8130000600000480350014013500140A0430040C24300401251004067
:40084000000200482051004008020048224300400048004004000840B043004080B500AF134B02221A70134B81221A70124B08221A70124B04221A70114B00221A70114B82
:400880004FF400421A600F20072100F029FD0F200D4900F0FDFC0D4B10221A700C4B00221A700C4B00221A700B4B00221A7080BDD6490040C8490040CA490040DB4900409E
:4008C000DC49004080E100E04D0900005081FF1F5481FF1F6181FF1F5581FF1F80B582B000AF00F045FD0346FB710B4A0A4B1B78DBB243F00403DBB21370084A074B1B78DE
:40090000DBB243F00403DBB21370FB79184600F033FD0837BD4680BDA5430040B543004080B500AF074B1B78002B04D1FFF796FF044B01221A70FFF7D1FF034B4FF4004226
:400940001A6080BD3D81FF1F00E100E080B582B000AFA84B1B78FB71A74B1B78DBB203F04003DBB2002B00F0AC81FB7903F00103002B00F08381A04B1B78DBB2453B052BB9
:4009800000F2788101A252F823F000BFA5090000CD0A0000750C0000750C0000A5090000BB0B0000FB7923F02003FB71FB7903F00A03DBB2082B46D18F4B1B78DBB2452BC7
:4009C0003AD18E4B1B78DBB2002B0FD08C4A8D4B1B681B78DBB21370864B04221A708A4B01221A70844B46221A706EE0874B1B78DBB203F00203002B0FD0854B1B78DBB21F
:400A000043F00A03DAB2824B1A707B4B60221A70804B4FF400421A6057E07F4A7E4B1B78DBB243F01003DBB213707C4B10221A70704B04221A7048E06E4B00221A706E4B84
:400A40004A221A701AE1FB7903F00A03DBB20A2B37D16F4B1B78DBB263F05F03DAB26C4B1A706A4B1B78DBB203F00203002B19D0614B1B78DBB203F00803002B01D0092318
:400A800000E00A23DAB2624B1B78DBB21343DAB25F4B1A70584B60221A705E4B4FF400421A6012E05C4A5C4B1B78DBB243F01003DBB21370594B10221A704E4B04221A7005
:400AC000DCE0002000F0B6FBD8E0D7E0FB7903F00203002B42D14C4B1B78DAB2474B1B78DBB29A4214D2464A464B1B6846490978C9B20B441B78DBB213703E4B04221A70DC
:400B0000414B1B78DBB20133DAB23F4B1A7053E03E4B1B78DBB203F00203002B0FD03C4B1B78DBB243F00A03DAB2394B1A70324B60221A70374B4FF400421A603CE0364A30
:400B4000354B1B78DBB243F01003DBB21370334B10221A70274B04221A708FE02B4B1B78DBB203F00203002B0FD0294B1B78DBB263F06503DAB2264B1A701F4B60221A70D0
:400B8000244B4FF400421A6016E0234A224B1B78DBB243F01003DBB21370204B10221A70144B04221A701A4B1B78DBB263F06F03DAB2174B1A7061E060E0194B1B68194ABE
:400BC0001278D2B213440E4A1278D2B21A70154B1B78DBB20133DAB2124B1A70114B1B78DAB2114B1B78DBB29A421FD2014B10221A703EE0D74900405081FF1F5681FF1F4B
:400C0000D84900405C81FF1F5581FF1F5781FF1F5481FF1F80E100E0D6490040D94900405881FF1F6181FF1F6081FF1F2C4B1B78DBB203F00203002B0FD02A4B1B78DBB255
:400C400043F00903DAB2274B1A70274B60221A70264B4FF400421A600BE0254A244B1B78DBB243F01003DBB21370224B00221A7004E003E0002000F0DDFA00BFFB7903F093
:400C80002003002B28D0184B1B78DBB203F00803002B01D0012300E00223DAB2114B1B78DBB21343DAB20F4B1A70114A104B1B78DBB223F01003DBB213700B4B10221A705C
:400CC0000AE0094B1B78DBB203F01003DBB2002B02D1054B10221A700837BD4680BD00BF5781FF1F5481FF1F5081FF1F80E100E0D6490040D749004080B485B000AF034682
:400D00000A46FB711346BB710223FB73244B1B78DBB2102B3CD1234B1B78DBB203F00803002B33D1204B4FF400421A60FB795B00FB71BB79002B07D0FB7943F00103FB715B
:400D4000174B49221A7002E0154B45221A70174AFB791370134B01221A7000BF144B1B78DBB203F00103002BF8D0114B1B78DBB203F00A03DBB20A2B05D1094B10221A703A
:400D80000323FB7304E00023FB7301E00123FB73FB7B18461437BD465DF8047B704700BF5081FF1FD949004080E100E0D8490040D749004080B483B000AF0223FB71104BF6
:400DC0001B78DBB203F00403002B12D00C4B10221A700C4B04221A700B4B10221A7000BF084B1B78DBB203F02103002BF8D00023FB71FB7918460C37BD465DF8047B704732
:400E0000D9490040D74900405081FF1F80B485B000AF0346FB710223FB73184B1B78DBB203F00403002B22D0154AFB791370154B04221A70144B46221A7000BF114B1B78A2
:400E4000DBB203F00103002BF8D00E4B1B78DBB203F00203002B05D10B4B60221A700023FB7304E0084B60221A700323FB73FB7B18461437BD465DF8047B7047D9490040B0
:400E8000D8490040D74900405081FF1F80B485B000AF0346FB710023FB73174B1B78DBB203F00403002B1FD0144B1B78DBB2492B05D1134B00221A70104B4A221A7000BFAB
:400EC0000F4B1B78DBB203F00103002BF8D00D4B1B78FB73FB79002B03D0094B10221A7002E0064B60221A70FB7B18461437BD465DF8047B704700BFD94900405081FF1FB7
:400F0000D7490040D849004080B582B000AF6FF07F4000F05BF86FF07F4000F073F800F027FA0346FB710A4A094B1B78DBB243F01003DBB21370FB79184600F01DFA00F053
:400F400081F8002000F026F80837BD4680BD00BF9C64004080B400AF054A054B1B78DBB263F07F03DBB21370BD465DF8047B70477B64004080B500AF054B1B78002B04D151
:400F8000FFF7C2FF024B01221A70FFF7E3FF80BD3E81FF1F80B483B000AF0346FB71044AFB7913700C37BD465DF8047B704700BF8C64004080B400AF034B1B78DBB218460F
:400FC000BD465DF8047B70476C64004080B582B000AF78600348796800F0A4F90837BD4680BD00BF2A64004080B400AF044B1B6823F07F431846BD465DF8047B704700BF6B
:401000004A64004080B582B000AF78600348796800F088F90837BD4680BD00BF0A64004080B400AF054B1B78054B1B6823F07F431846BD465DF8047B704700BF0A64004084
:401040004A64004080B500AF01E0FFF7CDFFFFF7B1FF034603F00803002BF6D180BD00BF80B582B000AF42F20F7000F05BF842F20F7000F073F800F07BF90346FB710A4A99
:40108000094B1B78DBB243F01003DBB21370FB79184600F071F900F071F8002000F026F80837BD4680BD00BF9F64004080B400AF054A054B1B78DBB263F07F03DBB21370AB
:4010C000BD465DF8047B70477F64004080B500AF054B1B78002B04D1FFF7C2FF024B01221A70FFF7E3FF80BD3F81FF1F80B483B000AF0346FB71044AFB7913700C37BD467E
:401100005DF8047B704700BF8F64004080B400AF034B1B78DBB21846BD465DF8047B70476F64004080B483B000AF0346FB80044AFB8813800C37BD465DF8047B704700BF14
:401140005C68004080B400AF034B1B889BB21846BD465DF8047B70479C68004080B483B000AF0346FB80044AFB8813800C37BD465DF8047B704700BF1C68004080B500AFA4
:4011800001E0FFF7DFFFFFF7C1FF034603F00803002BF6D180BD00BF80B582B000AF786000F03CF8786800F009F8072000F018F800F028F80837BD4680BD00BF80B485B0CE
:4011C00000AF7860054B1B68FB60FB6840337A681A601437BD465DF8047B704708ED00E080B483B000AF0346FB71054AFB795B01DBB213700C37BD465DF8047B704700BFD0
:4012000000E400E080B400AF034B01221A60BD465DF8047B704700BF00E100E080B400AF034B01221A60BD465DF8047B704700BF80E100E080B483B000AF0346FB7101BE28
:401240000C37BD465DF8047B704700BF80B582B000AF786008E00C4B1B68184600F080F87B68A3F500437B607B68B3F5004FF2D8064B1B687A6802FB03F3184600F070F8CC
:401280000837BD4680BD00BF1881FF1F1081FF1F80B584B000AF03463960FB710F4B1B68FB60FB791F2B02D90020FFF7C3FFFB7903F01F0310339B00FA6813441B68BB60BD
:4012C000FB7903F01F0310339B00FA6813443A681A60BB6818461037BD4680BD08ED00E080B582B000AF03460A46FB711346BB71BB79072B02D90020FFF79CFFFB791F2B85
:4013000002D90020FFF796FFFB7903F01F0303F1604303F56443BA795201D2B21A700837BD4680BD80B485B000AF786039607B68FB603B68DAB2FB681A70FB6801333A6839
:40134000120AD2B21A70FB6802333A68120CD2B21A701437BD465DF8047B7047000000000230800803D000BF01380046FCD17047EFF3108072B6704780F31088704700BFE3
:401380000E4B70B51E460E4C0025E41AA410A54204D056F8253098470135F8E700F04AF8084B094C1E46E41AA4100025A54204D056F8253098470135F8E770BD40140000E0
:4013C00040140000401400004814000010B5431E0A44914204D011F8014B03F8014FF8E710BD03460244934202D003F8011BFAE77047000000000000C849004019000051E2
:4014000000401000305100404000C05100401000F0510040100000000140001000140140000800400140000A004C01400002005001402000F8B500BFF8BC08BC9E46704771
:401440004D000000B5040000F8B500BFF8BC08BC9E46704729000000681400000881FF1F18000000480000000000000000366E01C05D0000180000000000E02E0000000053
:40148000000000000000000000000000000000000000000000000000000000000000000000000000000000000000000000000000000000000000000000000000000000002C
:4014C00000000000000000000000000000000000000000000000000000000000000000000000000000000000000000000000000000000000000000000000000000000000EC
:4015000000000000000000000000000000000000000000000000000000000000000000000000000000000000000000000000000000000000000000000000000000000000AB
:40154000000000000000000000000000000000000000000000000000000000000000000000000000000000000000000000000000000000000000000000000000000000006B
:020000040003F7
:0200000480007A
:40000000025200400264004001030140260A01400A0B01401D0C01400F0D0140300E0140160F014001150140011B014002400140024101400242014001430140074501407C
:4000400003460140034701400148014002490140094C0140014D01400350014002510140114014608C0D8F0DEE08405449FF4AFF4BFF4F0150185A045F016040624064404D
:400080006540668068806A806C806E80C014C9FFCAFFCBFFCD83CE03CF01D018D280DA04DB04DF01E040E240E440E540E680E880EA80EC80EE804280468047804801740168
:4000C00077809A809F80D091D20822012E0130013E01401445EC4602480749FF4AFF4BFF4D834E034F015018540158045A045B045F016040624064406540668068806A80F2
:400100006C806E80168017801E80468047804D044F0156805D045E805F01AF20C490D090D6D0405149FF4AFF4BFF4F0150185A045F016040624064406540668068806A8029
:400140006C806E809E01AE01B001B401BE01C041C5ECC602C807C9FFCAFFCBFFCD83CE03CF01D018D280D401D804DA04DB04DF01E040E240E440E540E680E880EA80EC80E6
:40018000EE800D8017801E801F2041804580464048014D044F0155805D045E805F01740176407780C280C480D098D208D6D0EA01EA013320CC10AF20EE103E10CE20961022
:4001C00008200C015B086210C206D602D80298219E109F0898219E109F089610AA10EA801328161078017C2098219E109F08C40EDE03AB2000010C010E01000303C00000B0
:40020000000B0B0000000000600000006000600000000000000000000000000000000000000000000000000000000000000000000000000000000000000000000000000088
:40024000000000000000000000000000000000000000000000000000000000000000000000000000000000000000000000000000000000000000000000000000000000007E
:40028000000000000000000000000000000000000000000000000000000000000000000000000000000000000000000000000000000000000000000000000000000000003E
:4002C00000000000000000000000000000000000000000000000000000000000000000000000000000000000000000000000000000000000000000000000000000000000FE
:4003000000000000000000000000000000000000000000000000000000000000000000000000000000000000000000000000000000000000000000000000000000000000BD
:0200000490006A
:0400000000004005B7
:0200000490105A
:04000000BC90ACAF55
:0200000490303A
:020000009DD091
:0200000490402A
:4000000000000000000000000000000000000000000000000000000000000000000000000000000000000000000000000000000000000000000000000000000000000000C0
:400040000000000000000000000000000000000000000000000000000000000000000000000000000000000000000000000000000000000000000000000000000000000080
:400080000000000000000000000000000000000000000000000000000000000000000000000000000000000000000000000000000000000000000000000000000000000040
:4000C0000000000000000000000000000000000000000000000000000000000000000000000000000000000000000000000000000000000000000000000000000000000000
:0200000490501A
:0C00000000012E12306900012E1ACE39CA
:00000001FF